:040000008A15312EFE
:08000800FF00030E8312031335
:10001000B8000A0EB900040EBA008A150A126B2E37
:10002000E508031D14280800CC30FF3E031D1528E9
:100030000000E50B1428080000000000000000008C
:1000400000000000FD0B1C2808000330ED07ED0C3C
:10005000ED0C7F30ED050000ED0B2B28080083121E
:1000600003134108193C42080318031DC21B402812
:10007000C708C808C70A0319C80AC101C201080095
:10008000C108C208C10A0319C20A080083169C18D5
:1000900046288312600883169B0083126208831629
:1000A0009A001C1580300B058312E3008B1355302A
:1000B00083169D00AA309D009C149C185D28831215
:1000C000E308031964288B1783161C110800F70135
:1000D0004030F80083120313CE08031D712801304D
:1000E000F700F708031D87284E08033A031D7A28F6
:1000F000F80187287F30F800D408031984284E08B7
:10010000023A0319F80187284E030319F8012C0855
:100110008316A00083122D088316A10083122E08D7
:100120008316A20083122F088316A3007808A40068
:10013000A501A601A701F81FA028A503A603A703F0
:100140002408A00725080318250FA107260803186F
:10015000260FA20727080318270FA3077F30831253
:100160002C05F90000303C02031DB828FD303B028D
:10017000031C62293B08FD3C3C080318031DBC1B03
:10018000C228CB28FD303B0603193C08031DE32899
:100190008316A31FE32828308312CF04F808031D19
:1001A000DB287F30AE00FF30AC00AD00AF01FE3089
:1001B000BB00BC010800FF30BB00BC01AC01AD01BD
:1001C000AE01AF0108008312BC1F62298316A5018E
:1001D00083124D03031DEE288316A50A8316A4017E
:1001E00083123C08803A8316A9007F302902031D40
:1001F000FC28FF3083123B02031800298316A40A4F
:100200008316A801A4080319A508031DA80A8030B5
:100210002305A600A701A70AA608031D2710FA01B7
:10022000A7080319A808031DFA0A8312BB080319BB
:10023000BC08031955293B098316A40083123C0905
:100240008316A500A40A0319A50A20302402250854
:1002500003182C2903192E29A51F482926108312BB
:100260003B098316A700A70A83122C1C3929831681
:10027000261403108312AF0CAE0CAD0CAC0C83161D
:10028000A703031D3429261C552983122C14552934
:1002900083122C082D042E042F04FF39031955292D
:1002A0000130AC00AD01AE01AF018312BB01BC0156
:1002B0007F302C05F900FA0803196229F90803199F
:1002C00062294F16F908031DCF1678088316A4007B
:1002D000A501A601A701F81F7029A503A603A7037E
:1002E00024088312AC0783162508031C7A29250FDE
:1002F0007A297C298312AD0783162608031C8329DB
:10030000260F832985298312AE0783162708031C2D
:100310008C29270F8C298E298312AF07073083166B
:10032000A400A40803199D2903108312AF0CAE0C7E
:10033000AD0CAC0C8316A403912940307906031D43
:10034000A629F7080319A62983122C1083122C085A
:100350002D042E042F04FF39031D0800BB01BC012E
:100360000800831203132F1CB9290230BB0703189E
:10037000BC0AAE1FBF29BB0A031DBF29BC0A3B082C
:10038000AF000310AF0CAE133B18AE17D408031D1B
:10039000AF1708004030F70083160313A001A10136
:1003A000A201A3018312AC01AD01AE01AF01770838
:1003B000F800F703F8080319372A0310AC0DAD0D48
:1003C000AE0DAF0D8316A31FE72983122C14031063
:1003D0008316A00DA10DA20DA30D8312AB1F2E2A13
:1003E00024088316A00783122508031CFA29250F69
:1003F000FA29FC298316A10783122608031C032A65
:10040000260F032A052A8316A20783122708031C36
:100410000C2A270F0C2A0E2A8316A30783122708FB
:1004200083162302031D242A831226088316220220
:10043000031D242A8312250883162102031D242A62
:10044000831224088316200203182E2A8312AC0A72
:100450000319AD0A0319AE0A0319AF0A8312AF1BC1
:10046000372A0310A80DA90DAA0DAB0DD729BC0181
:1004700020307702BB00031CBC03F71BBC038316B0
:100480002008210422042304FF39031908008312E1
:100490002C140800E801E901EB01EC01EA016A1AF9
:1004A00008000310EB0DEC0DE20DE30DE80DE90D76
:1004B00065086902031D5E2A64086802031C672A36
:1004C0006408E8026508031CE903E9026B14EA0A00
:1004D0004F2AE40163086402031808006400013035
:1004E000E5001020E40A6A2A831203132C082D0465
:1004F0002E042F04FF390319892A2F1B080003102B
:10050000AC0DAD0DAE0DAF0DBB080319BC03BB03A5
:100510007D2ABB01BC01080083120313871007105A
:1005200005118510871207117A0E0F39FC000F3064
:10053000FC057C188714FC1807147C190515FC1998
:100540008514FB08031D87160A30FD001C200715C3
:100550000A30FD001C2007110F307A05FC000A301C
:10056000FD001C2087100710051185108712071148
:100570007C188714FC1807147C190515FC198514C0
:10058000FB08031D87160A30FD001C2007150A30E2
:10059000FD001C2007110A30FD001C2008005C082B
:1005A000E0005D08E1005E08E200462008008312DA
:1005B00003136908A4006A08A5006B08A600A61327
:1005C000A7016C08D000D0130310D00DEB1B501402
:1005D0006D08A8006E08A9006F08AA00AA13AB0155
:1005E0007008D100D1130310D10DEF1B5114D201AB
:1005F000EC1FFC2A0130D200D301F01F012B013087
:10060000D30053085206D4007110500A0319711414
:10061000F110510A0319F11471112408250426045C
:100620002704FF3903197115F111280829042A0438
:100630002B04FF390319F1157118202BF11C672BBE
:10064000711C282B7119282B6B1B282B4F14582B2E
:10065000F11C302BF119302B6F1B302B4F14582B02
:10066000711C342B711D582BF11C382BF11D582B8C
:10067000F11D3F2BD108031D3F2B4F14582B711D2B
:10068000462BD008031D462B4F14582BF701F801B9
:100690007F30FA008030F900D408031DFA177A0879
:1006A000FE007908FD007808FC007708FB000800D0
:1006B000F701F801C030F900FF30FA007A08FE00B7
:1006C0007908FD007808FC007708FB0008007F30FF
:1006D000F200D008031D882B711D7E2BF701F80155
:1006E000FA01F901D408031DFA177A08FE00790807
:1006F000FD007808FC007708FB000800F203A61B49
:10070000892B0310A40DA50DA60DA70DF20A7F2BB2
:10071000A617D108031DA82BF11D9E2BF701F80188
:10072000FA01F901D408031DFA177A08FE007908C6
:10073000FD007808FC007708FB000800F203AA1B04
:10074000A92B0310A80DA90DAA0DAB0DF20A9F2B22
:10075000AA170730F700F7080319B52B0310A40DEB
:10076000A50DA60DA70DF703AB2B0830F700F70872
:100770000319C12B0310A80DA90DAA0DAB0DF7038A
:10078000B72BCA218312BB080319BC080319F52B28
:100790003B09F7003C09F800F70A0319F80A203072
:1007A000770278080318D62B0319D82BF81FE92BEA
:1007B00071123B09F900F90A2C1871160310AF0CDD
:1007C000AE0CAD0CAC0CF903031DDC2B711A2C1410
:1007D000F52B2C082D042E042F04FF390319F52BBB
:1007E0000130AC00AD01AE01AF015008BB00BC014F
:1007F0005108BB070318BC0A7208BB02031CBC03E8
:100800002F1B0B2C0310AC0DAD0DAE0DAF0DBB08A7
:100810000319BC03BB036720B1212C08F3002D088A
:10082000F4002E08F5002F08F6007608FE00750883
:10083000FD007408FC007308FB0008006908AC00A8
:100840006A08AD006B08AE006C08AF002C08003CD5
:10085000031D3C2C2D08003C031D3C2C2E08003CA5
:10086000031D3C2C2F08803C031D3C2C0130D40080
:100870009E30BB00BC01612CD401AF1F5C2C013049
:10088000D4002C08003CF1000030F200F300F4002A
:100890002D08031C2D0FF2022E08031C2E0FF3024D
:1008A0002F08031C2F0FF4027108AC007208AD0072
:1008B0007308AE007408AF009C30BB00BC0174220A
:1008C0006720B1212C08ED002D08EE002E08EF0066
:1008D0002F08F0007008F4006F08F3006E08F200B3
:1008E0006D08F100080002301F049F009F18762C4D
:1008F000E90803198F2C1E08EA00EB01EA0DEB0D45
:10090000EA0DEB0DFC30EA0583161E0C8312EC0099
:10091000EC0CEC0E03306C05EA04EB08922C1E087C
:10092000EA00EB016A08EC006B08ED0008000730F4
:100930006A05ED006D0EF03983169F008312690879
:10094000073A031DAC2C0830DA000030CC008730A9
:10095000CB00803083169100831383124C188317C9
:100960004B0884000008D9005A085904ED008000A3
:100970006908ED00ED0DED0DFC306D0501389F00AF
:100980006B0303191F176C08ED0025200800DF0119
:100990005D0883169B001C141A088312DF005F0891
:1009A000E00008008313831203134C1883174B08CD
:1009B0008400590880008316910183129F0108006A
:1009C00083120313DC01DD014708DE004808DF0065
:1009D000CF2201308312DC00DD014908DE004A0825
:1009E000DF00CF2202308312DC00DD014308DE008D
:1009F0004408DF00CF2208008312031347083B3C62
:100A000048080318031DC81B0800C701C801C9080E
:100A1000CA08C90A0319CA0A49083B3C4A0803180C
:100A2000031DCA1B0800C901CA01C308C408C30AC0
:100A30000319C40A4308183C44080318031DC41BC7
:100A40000800C301C40108005F08FA00FB018C2202
:100A50000230E30069220800DE1F3B2D2D30FA0032
:100A60001030FB008C225D08003CE200DE09031818
:100A7000DE0A6208DD005D08DF005E08E000273066
:100A80005E02031D452D10305D02031C732DDE1B1D
:100A9000732DE6015F08E2006008E300E01F562DB9
:100AA000E209E309E20A0319E30AE60A1030E40066
:100AB0002730E5004A226B08E100661C612DE10940
:100AC000E10A6108303EFA001030FB008C22610818
:100AD000003C0318732D1030DF022730031C283030
:100AE000E002E103672D03305E02031D792DE8303B
:100AF0005D02031CA92DDE1BA92DE7015F08E200A2
:100B00006008E300E01F8A2DE209E309E20A031905
:100B1000E30AE70AE830E4000330E5004A226B0804
:100B2000E600671C952DE609E60A6608E100610803
:100B3000303EFA001030FB008C226108003C0318A4
:100B4000A92DE830DF020330031C0430E002E1038A
:100B50009D2D5E08803AE20080306202031DB22DB6
:100B600064305D02031CDE2DE7015F08E2006008CF
:100B7000E300E01FC12DE209E309E20A0319E30AD9
:100B8000E70A6430E400E5014A226B08E600671CCE
:100B9000CB2DE609E60A6608E1006108303EFA005E
:100BA0001030FB008C226108003C0318DE2D6430FD
:100BB000DF02E008031CE003E103D32D5E08803A66
:100BC000E20080306202031DE72D0A305D02031C43
:100BD000132EE7015F08E2006008E300E01FF62D36
:100BE000E209E309E20A0319E30AE70A0A30E4002A
:100BF000E5014A226B08E600671C002EE609E60ABA
:100C00006608E1006108303EFA001030FB008C22DB
:100C10006108003C0318132E0A30DF02E008031CB1
:100C2000E003E103082E5F08303EFA001030FB00BD
:100C30008C220800F901F9017808790203180800EC
:100C400083138312031362188317610879078400E2
:100C50008008031908008313621883176108790755
:100C600084000008FA001030FB008C22F90A1C2EC8
:100C7000E208031D3E2E8030E200402EC030E2002C
:100C800061086207FA00FB018C220230E30069224E
:100C900008005B08A4005C08A5005D08A600A61378
:100CA000A7015E08D000D0130310D00DDD1B501437
:100CB000D201DE1F5D2E0130D200E00196305002DD
:100CC000DF00031CE00380305002E1006108153CA6
:100CD0000318D62EE11BD62E61081D3C0318A02E4A
:100CE000E11BA02E5B08003C031D822E5C08003C2B
:100CF000031D822E5D08003C031D822E5E08CF3C42
:100D000003199A2E4F14D2080319932E61087F3AC3
:100D1000E11B9A2E031D9A2E24082504260427047D
:100D2000FF3903199A2E7F30E900FF30E600E70013
:100D3000E8000800E601E701E8018030E90008006A
:100D40001630E102A6176108EA00EA080319AF2E7F
:100D50000310A40DA50DA60DA70DEA03A52ED2081C
:100D60000319CD2E2408003CEA000030EB00EC0013
:100D7000ED002508031C250FEB022608031C260F97
:100D8000EC022708031C270FED026A08A4006B0879
:100D9000A5006C08A6006D08A7002408E600250839
:100DA000E7002608E8002708E90008007E30500226
:100DB0000318F42ED0080319DE2EE52E240825048E
:100DC00026042704FF390319EB2E0130EA00EB015A
:100DD000EC01ED01EF2EEA01EB01EC01ED01E20186
:100DE000E301E401E501232FA6172408EA00250802
:100DF000EB002608EC002708ED001F305F05EE0031
:100E0000EE0803190A2F0310EA0DEB0DEC0DED0DA2
:100E1000EE03002F2408E2002508E3002608E40082
:100E20002708E500DF09E009DF0A0319E00A5F0887
:100E3000EE00EE080319232F650DE50CE40CE30C1E
:100E4000E20CEE03192F6A086B046C046D04FF3981
:100E5000031DCF16CE08031D6B2FED1F4C2FE20A8A
:100E60000319E30A0319E40A0319E50A6A08EE0004
:100E70006B08EF006C08F0006D08F1000310EE0D38
:100E8000EF0DF00DF10D6E086F0470047104FF3961
:100E9000031D4C2FFE30E205D2080319AD2F620866
:100EA000003CEE000030EF00F000F1006308031C8E
:100EB000630FEF026408031C640FF0026508031C53
:100EC000650FF1026E08E2006F08E3007008E400AD
:100ED0007108E500AD2FEE016A086B046C046D0427
:100EE000FF39031D6E14D20803199F2F4E03031DF3
:100EF000832FEE080319832FE20A0319E30A03196B
:100F0000E40A0319E50A6208003CEF000030F00033
:100F1000F100F2006308031C630FF0026408031C75
:100F2000640FF1026508031C650FF2026F08E2000E
:100F30007008E3007108E4007208E500AD2F4E0868
:100F4000023A031DAD2FEE080319AD2FE20A031973
:100F5000E30A0319E40A0319E50A6208E6006308D4
:100F6000E7006408E8006508E9000800E401E5011D
:100F7000E101E201E301631A08000310E10DE20D53
:100F8000DB0DDC0DE40DE50D5E086502031DCA2FC7
:100F90005D086402031CD32F5D08E4025E08031C95
:100FA000E503E5026114E30ABB2FFC24E02483126D
:100FB000E101E20138260A30430244080318E22F17
:100FC0000319E42FC41FF42F3030DD00DE010030A0
:100FD000E2005D30E1000130F8001A260130831292
:100FE0000313E100E20138264308DD004408DE0077
:100FF0002C250330E100E20138260A3049024A0874
:101000008A150318052803190728CA1F1828303025
:10101000DD00DE010030E2005D30E1000130F8006B
:101020008A111A26043083120313E100E2013826E4
:101030004908DD004A08DE008A112C250630E1004F
:10104000E20138260A30470248088A1503182A2880
:1010500003192C28C81F3D283030DD00DE01003088
:10106000E2005D30E1000130F8008A111A260730F5
:1010700083120313E100E20138264708DD00480827
:10108000DE008A112C250800FF3083120313DE00D6
:1010900083160716103083120705DE005E08DF0096
:1010A0000800DD015B08003A031966286C3A031951
:1010B0006628203A031966284D3A03196928733ABD
:1010C00003196928203A031969286B281830DD00B4
:1010D0006B281C30DD00DD0803190800DE015C0808
:1010E0005E02031808005D08DF008A112425DE0A6D
:1010F0008A156F280130FA00FB018A118C22023018
:10110000E30069220230FA00FB018C220230E30086
:10111000692208005B08FA001030FB008A118C225B
:1011200008005B08DD005C08DE008A11C724600847
:10113000DD00DE010800073083120313E9000330ED
:10114000EA00EB012830EC008A1197240130E90015
:1011500073246C08DB006D08DC00D224F430E90055
:101160000130EA00EB01EC011E247108E100720875
:10117000E2007308E3007408E4006108E900620813
:10118000EA006308EB006408EC000A30ED00D73099
:10119000EE002330EF003C30F000D7227B08E10066
:1011A0007C08E2007D08E3007E08E4006108E900B5
:1011B0006208EA006308EB006408EC004030ED00D0
:1011C000DA30EE007F30EF003A30F000D7227B08B3
:1011D000E5007C08E6007D08E7007E08E8005B0883
:1011E000E9005C08EA00EB01EC011E247108DD0057
:1011F0007208DE007308DF007408E0005D08E90093
:101200005E08EA005F08EB006008EC006508ED008E
:101210006608EE006708EF006808F000D7227B0838
:10122000E1007C08E2007D08E3007E08E40061083C
:10123000E9006208EA006308EB006408EC000800BB
:10124000033083120313DB00DC0191205D08C5002D
:101250005E08C600DB01DC018A1591205D08C7002D
:101260005E08C8000130DB00DC018A1591205D08B2
:10127000C9005E08CA000230DB00DC018A1591203B
:101280005D08C3005E08C40008008312031347080A
:10129000DB004808DC00C81F5229DB09DC09DB0A37
:1012A0000319DC0A0230DD00DE018A11B62764086A
:1012B000DF006508E0008A15C81F6329DF09E0091F
:1012C000DF0A0319E00A01305F0603196008031DF5
:1012D00089290230E100E2018A1138263A30E30020
:1012E000E4010030E2006330E1000130F8001A262A
:1012F000053083120313E100E20138263A30E3009F
:10130000E4010030E2006330E1000130F8001A2609
:1013100008000230E100E2018A1138262030E300A3
:10132000E4010030E2006330E1000130F8001A26E9
:10133000053083120313E100E20138262030E30078
:10134000E4010030E2006330E1000130F8001A26C9
:1013500008009B206908B4006A08B5006B08B60055
:101360006C08B700E901EA01C830EB004230EC003C
:101370003408ED003508EE003608EF003708F000BD
:10138000D7227B08DB007C08DC007D08DD007E08BE
:10139000DE0049266608C5006708C6000330DC0089
:1013A000DD014508DE004608DF00CF220B30831246
:1013B000E100E20138266430450246088A15031828
:1013C000E3290319E529C61F072A0A304502460802
:1013D0000318EC290319EE29C61FFC292030E3006D
:1013E000E400E5010030E2006330E1000230F80083
:1013F0008A111A268A15072A2030DD00DE01003006
:10140000E2005D30E1000130F8008A111A268312F3
:1014100003134508DD004608DE008A112C25DF3065
:10142000DB008A158A204330DD00DE010030E20057
:101430005D30E1000130F8001A26FF3083120313FB
:10144000E50010205F30E50010200B30E100E201E4
:1014500038262030E300E400E500E600E700E8017C
:101460000030E2006330E1000530F8001A26080081
:101470000130831203133F06031940080319532A4E
:1014800002303F06031940080319D92A03303F06EA
:101490000319400803194F2B04303F060319400875
:1014A0000319A82C08004130E3006A30E4007530CD
:1014B000E5007330E6007430E7006530E800723014
:1014C000E9002030EA004D30EB006930EC006E306E
:1014D000ED00EE010030E2006330E1000B30F80077
:1014E0008A111A268A154420DC01DF08031D5C14CA
:1014F00056105C08031D5614DB01561CDB0ADB0882
:10150000031D722AE1010130E2008A1138262030E1
:10151000E300E400E500E600E700E800E900EA0097
:10152000EB00EC00ED00EE00EF010030E200633074
:10153000E1000C30F8001A2683120313C908CA0808
:10154000C90A0319CA0A49083B3C4A088A15031C00
:10155000AB2A0319C12ACA1FAE2AC12AC901CA016E
:10156000C308C408C30A0319C40A4308173C440843
:10157000031CBC2A0319C12AC41FBF2AC12AC301E4
:10158000C4018A11D5278A154420DC01DF08031D18
:101590005C1456105C08031D5614C830E5008A110F
:1015A0001020DB015618DB0ADB088A15031D9C2A74
:1015B00008002030EA004130E3004830EB0065309D
:1015C000E800EC00EF006A30E4007230E900EE0061
:1015D0007330E6007430E7007530E500ED00F0018F
:1015E0000030E2006330E1000D30F8008A111A2665
:1015F0008A154420DC01DF08031D5C1456105C08CA
:10160000031D5614DB01561CDB0ADB08031DF82AF8
:10161000E1010130E2008A1138262030E300E400C5
:10162000E500E600E700E800E900EA00EB00EC0076
:10163000ED00EE00EF00F0010030E2006330E10069
:101640000D30F8001A2683120313C308C408C30A16
:101650000319C40A4308173C44088A15031C322B9B
:101660000319372BC41F352B372BC301C4018A1133
:10167000D5278A154420DC01DF08031D5C145610B1
:101680005C08031D5614C830E5008A111020DB01E8
:101690005618DB0ADB088A15031D232B08000230CD
:1016A000E1000130E2008A1138265230E300613057
:1016B000E500E9006530E400EB006930E7006C30DC
:1016C000E6007230ED007330E800EE007430EA009E
:1016D0007530EC00EF010030E2006330E1000C30C7
:1016E000F8001A26FF3083120313E5001020FF30A4
:1016F000E5001020FF30E50010202330E500102029
:101700008A157A200230E100E20138262030E90013
:10171000F2003A30F6005030E3005230EA00613017
:10172000EC00F4006530E700EB00F0006930EE00FB
:101730006A30E6006C30ED006F30E5007030F30089
:101740007230E400F100F5007330EF007430E8000F
:10175000F7010030E2006330E1001430F8001A268F
:10176000023083120313E1000130E20038262030FA
:101770008316A300A500A900B000B9002630A4007C
:101780002A30AA00BE002D30B100B8002E30A100D2
:10179000A7003030BB003130BD003230BA00BC0091
:1017A0003330AF003430AE004130A8004230A600E4
:1017B0004330B7004530AD004630A0004730AC00A4
:1017C0004830A2004930AB00B200B6004E30B30042
:1017D0005430B400B500BF0100308312E200A030E5
:1017E000E1001F30F8001A2683120313D8012230BB
:1017F00058028A1503180D2C0130DB00DC00512043
:10180000FF30E5008A111020F530E5001020E101DD
:10181000E2013826D80A8A15F72B7A200230E10037
:10182000E20138264130E400E6004630E3004E3065
:10183000E9004F30E7005230E5005530E800EA019A
:101840000030E2006330E1000730F8001A2605306E
:1018500083120313E1000130E20038264830E30030
:101860006930E4006330E5006830E6006530E70089
:101870006D30E800E9010030E2006330E10006303D
:10188000F8001A26FF3083120313E5001020FF3002
:10189000E5001020FF30E5001020FF30E5001020AB
:1018A000FF30E5001020FF30E50010204630E50055
:1018B00010208A157A204130E7004230E300EB0027
:1018C0004530E4004B30E6004C30E5004F30E90095
:1018D0005230E8005530EA00EC010030E20063309D
:1018E000E1000930F8001A26023083120313E100E8
:1018F0000130E20038264130E3006130E900623017
:10190000E4006430E500EA00ED006530E60069308F
:10191000EC006A30EB006C30E7006D30E800EE015F
:101920000030E2006330E1000B30F8001A26FF308F
:1019300083120313E5001020FF30E5001020FF3074
:10194000E50010208730E50010208A157A20080075
:101950000330E1000130E2008A1138262030E50032
:10196000EA002A30E300E400EB00EC004530E6003A
:101970006930E8007430E9007830E700ED010030AC
:10198000E2006330E1000A30F8001A26FF308312CB
:101990000313E5001020FF30E5001020FF30E500C4
:1019A00010202330E5001020E1010130E20038264C
:1019B0002030E300E400E500E600E700E800E9008D
:1019C000EA00EB00EC00ED00EE00EF00F00100306B
:1019D000E2006330E1000D30F8001A26080083169B
:1019E00003138710831287108316071083120710C2
:1019F0008316051183120511831685108312851035
:101A00008316871283128712831607118312071118
:101A10000C30E3008A1169223330FA00FB018C227A
:101A20000230E30069223330FA00FB018C220230DD
:101A3000E30069223230FA00FB018C220230E3001D
:101A400069222C30FA00FB018C220230E30069226B
:101A50000630FA00FB018C220230E30069220C30D0
:101A6000FA00FB018C220230E30069220130FA0007
:101A7000FB018C220230E30069220230FA00FB01F4
:101A80008C220230E30069220800831603139101BF
:101A9000073083129900C03083168100FE3005059F
:101AA0008500FE3083120505DB0001305B048500F4
:101AB00020218A15EF24831681120116F0300105CA
:101AC0008312DB0006305B04831681008B178B16B4
:101AD0008A11D5278A15A9218A1545218A154420FE
:101AE000DB01DF08031D5B1456105B08031D561451
:101AF000561C682D0230E100E2018A1138262030A0
:101B0000DB00DC010030E2005B30E1000130F80076
:101B10001A26053083120313E100E2013826203033
:101B2000DB00DC010030E2005B30E1000130F80056
:101B30001A26013083120313BF00C0018A15561CF8
:101B4000232EE1010130E2008A113826DD01003048
:101B5000E2005D30E100F8011A264D3083120313D4
:101B6000E3006530E4006E30E5007530E6003A30A1
:101B7000E700E8010030E2006330E1000530F800E2
:101B80001A26831203133F08DD004008DE002C25CF
:101B9000D701063057028A150318E42D3E30DD00C8
:101BA000DE010030E2005D30E1000130F8008A1112
:101BB0001A26FF3083120313E50010205F30E50082
:101BC0001020D70A8A15C92D4420DD01DF08031D26
:101BD0005D1456105D08031D5614E1010130E2004A
:101BE0008A1138262030E300E400E500E600E70033
:101BF000E800E900EA00EB00EC00ED00EE00EF0188
:101C00000030E2006330E1000C30F8001A26831245
:101C10000313DC0104303F0240088A150318122E1A
:101C20000319132EC01BDC0ADB015618DB0A5B0804
:101C30005C050319212EBF08C008BF0A0319C00A9A
:101C40009E2D56109E2DE1010130E2008A113826AA
:101C50008A153822013083120313BF00C0018A1590
:101C6000682DD53083120313A000C430A100BB300F
:101C7000A200DC30A300A401A501A601A701A801D0
:101C8000A901AA01AB01AC01AD01AE01AF01D001C8
:101C9000D101BB01BC01D201D301D401D501B001F6
:101CA000B101B201B301CE01CF01CD015610BD018A
:101CB000BE01B401B501B601B7010130BF00C001DA
:101CC000C101C201C301C401C701C801C901CA01E0
:101CD0008A150A12452D0B1D722E8B1E722E8A112B
:101CE0002F200B11831203133A0E8400390E8A0041
:0A1CF000380E8300FF0E7F0E09007E
:02400E00D430AC
:00000001FF
